{
  "_format": "hh-sol-artifact-1",
  "contractName": "Subscribe",
  "sourceName": "contracts/Subscribe.sol",
  "abi": [
    {
      "inputs": [],
      "stateMutability": "nonpayable",
      "type": "constructor"
    },
    {
      "anonymous": false,
      "inputs": [
        {
          "indexed": true,
          "internalType": "address",
          "name": "owner",
          "type": "address"
        },
        {
          "indexed": true,
          "internalType": "address",
          "name": "approved",
          "type": "address"
        },
        {
          "indexed": true,
          "internalType": "uint256",
          "name": "tokenId",
          "type": "uint256"
        }
      ],
      "name": "Approval",
      "type": "event"
    },
    {
      "anonymous": false,
      "inputs": [
        {
          "indexed": true,
          "internalType": "address",
          "name": "owner",
          "type": "address"
        },
        {
          "indexed": true,
          "internalType": "address",
          "name": "operator",
          "type": "address"
        },
        {
          "indexed": false,
          "internalType": "bool",
          "name": "approved",
          "type": "bool"
        }
      ],
      "name": "ApprovalForAll",
      "type": "event"
    },
    {
      "anonymous": false,
      "inputs": [
        {
          "indexed": true,
          "internalType": "address",
          "name": "from",
          "type": "address"
        },
        {
          "indexed": true,
          "internalType": "address",
          "name": "to",
          "type": "address"
        },
        {
          "indexed": true,
          "internalType": "uint256",
          "name": "tokenId",
          "type": "uint256"
        }
      ],
      "name": "Transfer",
      "type": "event"
    },
    {
      "inputs": [
        {
          "internalType": "address",
          "name": "to",
          "type": "address"
        },
        {
          "internalType": "uint256",
          "name": "tokenId",
          "type": "uint256"
        }
      ],
      "name": "approve",
      "outputs": [],
      "stateMutability": "nonpayable",
      "type": "function"
    },
    {
      "inputs": [
        {
          "internalType": "address",
          "name": "owner",
          "type": "address"
        }
      ],
      "name": "balanceOf",
      "outputs": [
        {
          "internalType": "uint256",
          "name": "",
          "type": "uint256"
        }
      ],
      "stateMutability": "view",
      "type": "function"
    },
    {
      "inputs": [],
      "name": "collectionName",
      "outputs": [
        {
          "internalType": "string",
          "name": "",
          "type": "string"
        }
      ],
      "stateMutability": "view",
      "type": "function"
    },
    {
      "inputs": [],
      "name": "collectionSymbol",
      "outputs": [
        {
          "internalType": "string",
          "name": "",
          "type": "string"
        }
      ],
      "stateMutability": "view",
      "type": "function"
    },
    {
      "inputs": [],
      "name": "createknft",
      "outputs": [
        {
          "internalType": "uint256",
          "name": "",
          "type": "uint256"
        }
      ],
      "stateMutability": "nonpayable",
      "type": "function"
    },
    {
      "inputs": [
        {
          "internalType": "uint256",
          "name": "tokenId",
          "type": "uint256"
        }
      ],
      "name": "getApproved",
      "outputs": [
        {
          "internalType": "address",
          "name": "",
          "type": "address"
        }
      ],
      "stateMutability": "view",
      "type": "function"
    },
    {
      "inputs": [
        {
          "internalType": "address",
          "name": "owner",
          "type": "address"
        },
        {
          "internalType": "address",
          "name": "operator",
          "type": "address"
        }
      ],
      "name": "isApprovedForAll",
      "outputs": [
        {
          "internalType": "bool",
          "name": "",
          "type": "bool"
        }
      ],
      "stateMutability": "view",
      "type": "function"
    },
    {
      "inputs": [],
      "name": "name",
      "outputs": [
        {
          "internalType": "string",
          "name": "",
          "type": "string"
        }
      ],
      "stateMutability": "view",
      "type": "function"
    },
    {
      "inputs": [
        {
          "internalType": "uint256",
          "name": "tokenId",
          "type": "uint256"
        }
      ],
      "name": "ownerOf",
      "outputs": [
        {
          "internalType": "address",
          "name": "",
          "type": "address"
        }
      ],
      "stateMutability": "view",
      "type": "function"
    },
    {
      "inputs": [
        {
          "internalType": "address",
          "name": "from",
          "type": "address"
        },
        {
          "internalType": "address",
          "name": "to",
          "type": "address"
        },
        {
          "internalType": "uint256",
          "name": "tokenId",
          "type": "uint256"
        }
      ],
      "name": "safeTransferFrom",
      "outputs": [],
      "stateMutability": "nonpayable",
      "type": "function"
    },
    {
      "inputs": [
        {
          "internalType": "address",
          "name": "from",
          "type": "address"
        },
        {
          "internalType": "address",
          "name": "to",
          "type": "address"
        },
        {
          "internalType": "uint256",
          "name": "tokenId",
          "type": "uint256"
        },
        {
          "internalType": "bytes",
          "name": "data",
          "type": "bytes"
        }
      ],
      "name": "safeTransferFrom",
      "outputs": [],
      "stateMutability": "nonpayable",
      "type": "function"
    },
    {
      "inputs": [
        {
          "internalType": "address",
          "name": "operator",
          "type": "address"
        },
        {
          "internalType": "bool",
          "name": "approved",
          "type": "bool"
        }
      ],
      "name": "setApprovalForAll",
      "outputs": [],
      "stateMutability": "nonpayable",
      "type": "function"
    },
    {
      "inputs": [
        {
          "internalType": "bytes4",
          "name": "interfaceId",
          "type": "bytes4"
        }
      ],
      "name": "supportsInterface",
      "outputs": [
        {
          "internalType": "bool",
          "name": "",
          "type": "bool"
        }
      ],
      "stateMutability": "view",
      "type": "function"
    },
    {
      "inputs": [],
      "name": "symbol",
      "outputs": [
        {
          "internalType": "string",
          "name": "",
          "type": "string"
        }
      ],
      "stateMutability": "view",
      "type": "function"
    },
    {
      "inputs": [
        {
          "internalType": "uint256",
          "name": "tokenId",
          "type": "uint256"
        }
      ],
      "name": "tokenURI",
      "outputs": [
        {
          "internalType": "string",
          "name": "",
          "type": "string"
        }
      ],
      "stateMutability": "view",
      "type": "function"
    },
    {
      "inputs": [
        {
          "internalType": "address",
          "name": "from",
          "type": "address"
        },
        {
          "internalType": "address",
          "name": "to",
          "type": "address"
        },
        {
          "internalType": "uint256",
          "name": "tokenId",
          "type": "uint256"
        }
      ],
      "name": "transferFrom",
      "outputs": [],
      "stateMutability": "nonpayable",
      "type": "function"
    }
  ],
  "bytecode": "0x60806040523480156200001157600080fd5b506040518060400160405280600681526020017f4b7574756d6200000000000000000000000000000000000000000000000000008152506040518060400160405280600381526020017f4b544d00000000000000000000000000000000000000000000000000000000008152508160009080519060200190620000969291906200023c565b508060019080519060200190620000af9291906200023c565b505050620000c26200010860201b60201c565b60089080519060200190620000d99291906200023c565b50620000ea620001a260201b60201c565b60099080519060200190620001019291906200023c565b5062000351565b6060600080546200011990620002ec565b80601f01602080910402602001604051908101604052809291908181526020018280546200014790620002ec565b8015620001985780601f106200016c5761010080835404028352916020019162000198565b820191906000526020600020905b8154815290600101906020018083116200017a57829003601f168201915b5050505050905090565b606060018054620001b390620002ec565b80601f0160208091040260200160405190810160405280929190818152602001828054620001e190620002ec565b8015620002325780601f10620002065761010080835404028352916020019162000232565b820191906000526020600020905b8154815290600101906020018083116200021457829003601f168201915b5050505050905090565b8280546200024a90620002ec565b90600052602060002090601f0160209004810192826200026e5760008555620002ba565b82601f106200028957805160ff1916838001178555620002ba565b82800160010185558215620002ba579182015b82811115620002b95782518255916020019190600101906200029c565b5b509050620002c99190620002cd565b5090565b5b80821115620002e8576000816000905550600101620002ce565b5090565b600060028204905060018216806200030557607f821691505b602082108114156200031c576200031b62000322565b5b50919050565b7f4e487b7100000000000000000000000000000000000000000000000000000000600052602260045260246000fd5b6130a380620003616000396000f3fe608060405234801561001057600080fd5b50600436106101005760003560e01c80636352211e11610097578063b88d4fde11610066578063b88d4fde146102ad578063c87b56dd146102c9578063e5326ab1146102f9578063e985e9c51461031757610100565b80636352211e1461021357806370a082311461024357806395d89b4114610273578063a22cb4651461029157610100565b806320fcdcf0116100d357806320fcdcf01461019f57806323b872dd146101bd5780632f39352a146101d957806342842e0e146101f757610100565b806301ffc9a71461010557806306fdde0314610135578063081812fc14610153578063095ea7b314610183575b600080fd5b61011f600480360381019061011a919061204f565b610347565b60405161012c919061251a565b60405180910390f35b61013d610429565b60405161014a9190612535565b60405180910390f35b61016d600480360381019061016891906120a9565b6104bb565b60405161017a91906124b3565b60405180910390f35b61019d6004803603810190610198919061200f565b610501565b005b6101a7610619565b6040516101b491906126d7565b60405180910390f35b6101d760048036038101906101d29190611ef9565b610701565b005b6101e1610761565b6040516101ee9190612535565b60405180910390f35b610211600480360381019061020c9190611ef9565b6107ef565b005b61022d600480360381019061022891906120a9565b61080f565b60405161023a91906124b3565b60405180910390f35b61025d60048036038101906102589190611e8c565b610896565b60405161026a91906126d7565b60405180910390f35b61027b61094e565b6040516102889190612535565b60405180910390f35b6102ab60048036038101906102a69190611fcf565b6109e0565b005b6102c760048036038101906102c29190611f4c565b6109f6565b005b6102e360048036038101906102de91906120a9565b610a58565b6040516102f09190612535565b60405180910390f35b610301610b6b565b60405161030e9190612535565b60405180910390f35b610331600480360381019061032c9190611eb9565b610bf9565b60405161033e919061251a565b60405180910390f35b60007f80ac58cd000000000000000000000000000000000000000000000000000000007bffffffffffffffffffffffffffffffffffffffffffffffffffffffff1916827bffffffffffffffffffffffffffffffffffffffffffffffffffffffff1916148061041257507f5b5e139f000000000000000000000000000000000000000000000000000000007bffffffffffffffffffffffffffffffffffffffffffffffffffffffff1916827bffffffffffffffffffffffffffffffffffffffffffffffffffffffff1916145b80610422575061042182610c8d565b5b9050919050565b60606000805461043890612922565b80601f016020809104026020016040519081016040528092919081815260200182805461046490612922565b80156104b15780601f10610486576101008083540402835291602001916104b1565b820191906000526020600020905b81548152906001019060200180831161049457829003601f168201915b5050505050905090565b60006104c682610cf7565b6004600083815260200190815260200160002060009054906101000a900473ffffffffffffffffffffffffffffffffffffffff169050919050565b600061050c8261080f565b90508073ffffffffffffffffffffffffffffffffffffffff168373ffffffffffffffffffffffffffffffffffffffff16141561057d576040517f08c379a000000000000000000000000000000000000000000000000000000000815260040161057490612697565b60405180910390fd5b8073ffffffffffffffffffffffffffffffffffffffff1661059c610d42565b73ffffffffffffffffffffffffffffffffffffffff1614806105cb57506105ca816105c5610d42565b610bf9565b5b61060a576040517f08c379a0000000000000000000000000000000000000000000000000000000008152600401610601906126b7565b60405180910390fd5b6106148383610d4a565b505050565b6000806106266007610e03565b905060006040518061016001604052806101368152602001612ef86101369139905060008161065484610e11565b60405160200161066592919061241d565b604051602081830303815290604052905060006106b261068485610e11565b61068d84610ee9565b60405160200161069e92919061244c565b604051602081830303815290604052610ee9565b90506000816040516020016106c79190612491565b60405160208183030381529060405290506106e23386611081565b6106ec858261109f565b6106f66007611113565b849550505050505090565b61071261070c610d42565b82611129565b610751576040517f08c379a000000000000000000000000000000000000000000000000000000000815260040161074890612557565b60405180910390fd5b61075c8383836111be565b505050565b6009805461076e90612922565b80601f016020809104026020016040519081016040528092919081815260200182805461079a90612922565b80156107e75780601f106107bc576101008083540402835291602001916107e7565b820191906000526020600020905b8154815290600101906020018083116107ca57829003601f168201915b505050505081565b61080a838383604051806020016040528060008152506109f6565b505050565b60008061081b836114b8565b9050600073ffffffffffffffffffffffffffffffffffffffff168173ffffffffffffffffffffffffffffffffffffffff16141561088d576040517f08c379a000000000000000000000000000000000000000000000000000000000815260040161088490612677565b60405180910390fd5b80915050919050565b60008073ffffffffffffffffffffffffffffffffffffffff168273ffffffffffffffffffffffffffffffffffffffff161415610907576040517f08c379a00000000000000000000000000000000000000000000000000000000081526004016108fe90612617565b60405180910390fd5b600360008373ffffffffffffffffffffffffffffffffffffffff1673ffffffffffffffffffffffffffffffffffffffff168152602001908152602001600020549050919050565b60606001805461095d90612922565b80601f016020809104026020016040519081016040528092919081815260200182805461098990612922565b80156109d65780601f106109ab576101008083540402835291602001916109d6565b820191906000526020600020905b8154815290600101906020018083116109b957829003601f168201915b5050505050905090565b6109f26109eb610d42565b83836114f5565b5050565b610a07610a01610d42565b83611129565b610a46576040517f08c379a0000000000000000000000000000000000000000000000000000000008152600401610a3d90612557565b60405180910390fd5b610a5284848484611662565b50505050565b6060610a6382610cf7565b6000600660008481526020019081526020016000208054610a8390612922565b80601f0160208091040260200160405190810160405280929190818152602001828054610aaf90612922565b8015610afc5780601f10610ad157610100808354040283529160200191610afc565b820191906000526020600020905b815481529060010190602001808311610adf57829003601f168201915b505050505090506000610b0d6116be565b9050600081511415610b23578192505050610b66565b600082511115610b58578082604051602001610b409291906123f9565b60405160208183030381529060405292505050610b66565b610b61846116d5565b925050505b919050565b60088054610b7890612922565b80601f0160208091040260200160405190810160405280929190818152602001828054610ba490612922565b8015610bf15780601f10610bc657610100808354040283529160200191610bf1565b820191906000526020600020905b815481529060010190602001808311610bd457829003601f168201915b505050505081565b6000600560008473ffffffffffffffffffffffffffffffffffffffff1673ffffffffffffffffffffffffffffffffffffffff16815260200190815260200160002060008373ffffffffffffffffffffffffffffffffffffffff1673ffffffffffffffffffffffffffffffffffffffff16815260200190815260200160002060009054906101000a900460ff16905092915050565b60007f01ffc9a7000000000000000000000000000000000000000000000000000000007bffffffffffffffffffffffffffffffffffffffffffffffffffffffff1916827bffffffffffffffffffffffffffffffffffffffffffffffffffffffff1916149050919050565b610d008161173d565b610d3f576040517f08c379a0000000000000000000000000000000000000000000000000000000008152600401610d3690612677565b60405180910390fd5b50565b600033905090565b816004600083815260200190815260200160002060006101000a81548173ffffffffffffffffffffffffffffffffffffffff021916908373ffffffffffffffffffffffffffffffffffffffff160217905550808273ffffffffffffffffffffffffffffffffffffffff16610dbd8361080f565b73ffffffffffffffffffffffffffffffffffffffff167f8c5be1e5ebec7d5bd14f71427d1e84f3dd0314c0f7b2291e5b200ac8c7c3b92560405160405180910390a45050565b600081600001549050919050565b606060006001610e208461177e565b01905060008167ffffffffffffffff811115610e3f57610e3e612a12565b5b6040519080825280601f01601f191660200182016040528015610e715781602001600182028036833780820191505090505b509050600082602001820190505b600115610ede578080600190039150507f3031323334353637383961626364656600000000000000000000000000000000600a86061a8153600a8581610ec857610ec76129b4565b5b0494506000851415610ed957610ede565b610e7f565b819350505050919050565b60606000825190506000811415610f12576040518060200160405280600081525091505061107c565b60006003600283610f23919061278b565b610f2d91906127e1565b6004610f399190612812565b90506000602082610f4a919061278b565b67ffffffffffffffff811115610f6357610f62612a12565b5b6040519080825280601f01601f191660200182016040528015610f955781602001600182028036833780820191505090505b509050600060405180606001604052806040815260200161302e604091399050600181016020830160005b868110156110395760038101905062ffffff818a015116603f8160121c168401518060081b905060ff603f83600c1c1686015116810190508060081b905060ff603f8360061c1686015116810190508060081b905060ff603f831686015116810190508060e01b90508084526004840193505050610fc0565b50600386066001811461105357600281146110635761106e565b613d3d60f01b600283035261106e565b603d60f81b60018303525b508484525050819450505050505b919050565b61109b8282604051806020016040528060008152506118d1565b5050565b6110a88261173d565b6110e7576040517f08c379a00000000000000000000000000000000000000000000000000000000081526004016110de90612637565b60405180910390fd5b8060066000848152602001908152602001600020908051906020019061110e929190611d10565b505050565b6001816000016000828254019250508190555050565b6000806111358361080f565b90508073ffffffffffffffffffffffffffffffffffffffff168473ffffffffffffffffffffffffffffffffffffffff16148061117757506111768185610bf9565b5b806111b557508373ffffffffffffffffffffffffffffffffffffffff1661119d846104bb565b73ffffffffffffffffffffffffffffffffffffffff16145b91505092915050565b8273ffffffffffffffffffffffffffffffffffffffff166111de8261080f565b73ffffffffffffffffffffffffffffffffffffffff1614611234576040517f08c379a000000000000000000000000000000000000000000000000000000000815260040161122b90612597565b60405180910390fd5b600073ffffffffffffffffffffffffffffffffffffffff168273ffffffffffffffffffffffffffffffffffffffff1614156112a4576040517f08c379a000000000000000000000000000000000000000000000000000000000815260040161129b906125d7565b60405180910390fd5b6112b1838383600161192c565b8273ffffffffffffffffffffffffffffffffffffffff166112d18261080f565b73ffffffffffffffffffffffffffffffffffffffff1614611327576040517f08c379a000000000000000000000000000000000000000000000000000000000815260040161131e90612597565b60405180910390fd5b6004600082815260200190815260200160002060006101000a81549073ffffffffffffffffffffffffffffffffffffffff02191690556001600360008573ffffffffffffffffffffffffffffffffffffffff1673ffffffffffffffffffffffffffffffffffffffff168152602001908152602001600020600082825403925050819055506001600360008473ffffffffffffffffffffffffffffffffffffffff1673ffffffffffffffffffffffffffffffffffffffff16815260200190815260200160002060008282540192505081905550816002600083815260200190815260200160002060006101000a81548173ffffffffffffffffffffffffffffffffffffffff021916908373ffffffffffffffffffffffffffffffffffffffff160217905550808273ffffffffffffffffffffffffffffffffffffffff168473ffffffffffffffffffffffffffffffffffffffff167fddf252ad1be2c89b69c2b068fc378daa952ba7f163c4a11628f55a4df523b3ef60405160405180910390a46114b38383836001611932565b505050565b60006002600083815260200190815260200160002060009054906101000a900473ffffffffffffffffffffffffffffffffffffffff169050919050565b8173ffffffffffffffffffffffffffffffffffffffff168373ffffffffffffffffffffffffffffffffffffffff161415611564576040517f08c379a000000000000000000000000000000000000000000000000000000000815260040161155b906125f7565b60405180910390fd5b80600560008573ffffffffffffffffffffffffffffffffffffffff1673ffffffffffffffffffffffffffffffffffffffff16815260200190815260200160002060008473ffffffffffffffffffffffffffffffffffffffff1673ffffffffffffffffffffffffffffffffffffffff16815260200190815260200160002060006101000a81548160ff0219169083151502179055508173ffffffffffffffffffffffffffffffffffffffff168373ffffffffffffffffffffffffffffffffffffffff167f17307eab39ab6107e8899845ad3d59bd9653f200f220920489ca2b5937696c3183604051611655919061251a565b60405180910390a3505050565b61166d8484846111be565b61167984848484611938565b6116b8576040517f08c379a00000000000000000000000000000000000000000000000000000000081526004016116af90612577565b60405180910390fd5b50505050565b606060405180602001604052806000815250905090565b60606116e082610cf7565b60006116ea6116be565b9050600081511161170a5760405180602001604052806000815250611735565b8061171484610e11565b6040516020016117259291906123f9565b6040516020818303038152906040525b915050919050565b60008073ffffffffffffffffffffffffffffffffffffffff1661175f836114b8565b73ffffffffffffffffffffffffffffffffffffffff1614159050919050565b600080600090507a184f03e93ff9f4daa797ed6e38ed64bf6a1f01000000000000000083106117dc577a184f03e93ff9f4daa797ed6e38ed64bf6a1f01000000000000000083816117d2576117d16129b4565b5b0492506040810190505b6d04ee2d6d415b85acef81000000008310611819576d04ee2d6d415b85acef8100000000838161180f5761180e6129b4565b5b0492506020810190505b662386f26fc10000831061184857662386f26fc10000838161183e5761183d6129b4565b5b0492506010810190505b6305f5e1008310611871576305f5e1008381611867576118666129b4565b5b0492506008810190505b612710831061189657612710838161188c5761188b6129b4565b5b0492506004810190505b606483106118b957606483816118af576118ae6129b4565b5b0492506002810190505b600a83106118c8576001810190505b80915050919050565b6118db8383611acf565b6118e86000848484611938565b611927576040517f08c379a000000000000000000000000000000000000000000000000000000000815260040161191e90612577565b60405180910390fd5b505050565b50505050565b50505050565b60006119598473ffffffffffffffffffffffffffffffffffffffff16611ced565b15611ac2578373ffffffffffffffffffffffffffffffffffffffff1663150b7a02611982610d42565b8786866040518563ffffffff1660e01b81526004016119a494939291906124ce565b602060405180830381600087803b1580156119be57600080fd5b505af19250505080156119ef57506040513d601f19601f820116820180604052508101906119ec919061207c565b60015b611a72573d8060008114611a1f576040519150601f19603f3d011682016040523d82523d6000602084013e611a24565b606091505b50600081511415611a6a576040517f08c379a0000000000000000000000000000000000000000000000000000000008152600401611a6190612577565b60405180910390fd5b805181602001fd5b63150b7a0260e01b7bffffffffffffffffffffffffffffffffffffffffffffffffffffffff1916817bffffffffffffffffffffffffffffffffffffffffffffffffffffffff191614915050611ac7565b600190505b949350505050565b600073ffffffffffffffffffffffffffffffffffffffff168273ffffffffffffffffffffffffffffffffffffffff161415611b3f576040517f08c379a0000000000000000000000000000000000000000000000000000000008152600401611b3690612657565b60405180910390fd5b611b488161173d565b15611b88576040517f08c379a0000000000000000000000000000000000000000000000000000000008152600401611b7f906125b7565b60405180910390fd5b611b9660008383600161192c565b611b9f8161173d565b15611bdf576040517f08c379a0000000000000000000000000000000000000000000000000000000008152600401611bd6906125b7565b60405180910390fd5b6001600360008473ffffffffffffffffffffffffffffffffffffffff1673ffffffffffffffffffffffffffffffffffffffff16815260200190815260200160002060008282540192505081905550816002600083815260200190815260200160002060006101000a81548173ffffffffffffffffffffffffffffffffffffffff021916908373ffffffffffffffffffffffffffffffffffffffff160217905550808273ffffffffffffffffffffffffffffffffffffffff16600073ffffffffffffffffffffffffffffffffffffffff167fddf252ad1be2c89b69c2b068fc378daa952ba7f163c4a11628f55a4df523b3ef60405160405180910390a4611ce9600083836001611932565b5050565b6000808273ffffffffffffffffffffffffffffffffffffffff163b119050919050565b828054611d1c90612922565b90600052602060002090601f016020900481019282611d3e5760008555611d85565b82601f10611d5757805160ff1916838001178555611d85565b82800160010185558215611d85579182015b82811115611d84578251825591602001919060010190611d69565b5b509050611d929190611d96565b5090565b5b80821115611daf576000816000905550600101611d97565b5090565b6000611dc6611dc184612717565b6126f2565b905082815260208101848484011115611de257611de1612a46565b5b611ded8482856128e0565b509392505050565b600081359050611e0481612e9b565b92915050565b600081359050611e1981612eb2565b92915050565b600081359050611e2e81612ec9565b92915050565b600081519050611e4381612ec9565b92915050565b600082601f830112611e5e57611e5d612a41565b5b8135611e6e848260208601611db3565b91505092915050565b600081359050611e8681612ee0565b92915050565b600060208284031215611ea257611ea1612a50565b5b6000611eb084828501611df5565b91505092915050565b60008060408385031215611ed057611ecf612a50565b5b6000611ede85828601611df5565b9250506020611eef85828601611df5565b9150509250929050565b600080600060608486031215611f1257611f11612a50565b5b6000611f2086828701611df5565b9350506020611f3186828701611df5565b9250506040611f4286828701611e77565b9150509250925092565b60008060008060808587031215611f6657611f65612a50565b5b6000611f7487828801611df5565b9450506020611f8587828801611df5565b9350506040611f9687828801611e77565b925050606085013567ffffffffffffffff811115611fb757611fb6612a4b565b5b611fc387828801611e49565b91505092959194509250565b60008060408385031215611fe657611fe5612a50565b5b6000611ff485828601611df5565b925050602061200585828601611e0a565b9150509250929050565b6000806040838503121561202657612025612a50565b5b600061203485828601611df5565b925050602061204585828601611e77565b9150509250929050565b60006020828403121561206557612064612a50565b5b600061207384828501611e1f565b91505092915050565b60006020828403121561209257612091612a50565b5b60006120a084828501611e34565b91505092915050565b6000602082840312156120bf576120be612a50565b5b60006120cd84828501611e77565b91505092915050565b6120df8161286c565b82525050565b6120ee8161287e565b82525050565b60006120ff82612748565b612109818561275e565b93506121198185602086016128ef565b61212281612a55565b840191505092915050565b600061213882612753565b612142818561276f565b93506121528185602086016128ef565b61215b81612a55565b840191505092915050565b600061217182612753565b61217b8185612780565b935061218b8185602086016128ef565b80840191505092915050565b60006121a4602d8361276f565b91506121af82612a66565b604082019050919050565b60006121c760328361276f565b91506121d282612ab5565b604082019050919050565b60006121ea60258361276f565b91506121f582612b04565b604082019050919050565b600061220d601c8361276f565b915061221882612b53565b602082019050919050565b600061223060248361276f565b915061223b82612b7c565b604082019050919050565b600061225360198361276f565b915061225e82612bcb565b602082019050919050565b6000612276600d83612780565b915061228182612bf4565b600d82019050919050565b600061229960298361276f565b91506122a482612c1d565b604082019050919050565b60006122bc602e8361276f565b91506122c782612c6c565b604082019050919050565b60006122df600283612780565b91506122ea82612cbb565b600282019050919050565b600061230260208361276f565b915061230d82612ce4565b602082019050919050565b6000612325600a83612780565b915061233082612d0d565b600a82019050919050565b600061234860188361276f565b915061235382612d36565b602082019050919050565b600061236b60218361276f565b915061237682612d5f565b604082019050919050565b600061238e606083612780565b915061239982612dae565b606082019050919050565b60006123b1601d83612780565b91506123bc82612e23565b601d82019050919050565b60006123d4603d8361276f565b91506123df82612e4c565b604082019050919050565b6123f3816128d6565b82525050565b60006124058285612166565b91506124118284612166565b91508190509392505050565b60006124298285612166565b91506124358284612166565b915061244082612269565b91508190509392505050565b600061245782612318565b91506124638285612166565b915061246e82612381565b915061247a8284612166565b9150612485826122d2565b91508190509392505050565b600061249c826123a4565b91506124a88284612166565b915081905092915050565b60006020820190506124c860008301846120d6565b92915050565b60006080820190506124e360008301876120d6565b6124f060208301866120d6565b6124fd60408301856123ea565b818103606083015261250f81846120f4565b905095945050505050565b600060208201905061252f60008301846120e5565b92915050565b6000602082019050818103600083015261254f818461212d565b905092915050565b6000602082019050818103600083015261257081612197565b9050919050565b60006020820190508181036000830152612590816121ba565b9050919050565b600060208201905081810360008301526125b0816121dd565b9050919050565b600060208201905081810360008301526125d081612200565b9050919050565b600060208201905081810360008301526125f081612223565b9050919050565b6000602082019050818103600083015261261081612246565b9050919050565b600060208201905081810360008301526126308161228c565b9050919050565b60006020820190508181036000830152612650816122af565b9050919050565b60006020820190508181036000830152612670816122f5565b9050919050565b600060208201905081810360008301526126908161233b565b9050919050565b600060208201905081810360008301526126b08161235e565b9050919050565b600060208201905081810360008301526126d0816123c7565b9050919050565b60006020820190506126ec60008301846123ea565b92915050565b60006126fc61270d565b90506127088282612954565b919050565b6000604051905090565b600067ffffffffffffffff82111561273257612731612a12565b5b61273b82612a55565b9050602081019050919050565b600081519050919050565b600081519050919050565b600082825260208201905092915050565b600082825260208201905092915050565b600081905092915050565b6000612796826128d6565b91506127a1836128d6565b9250827fffffffffffffffffffffffffffffffffffffffffffffffffffffffffffffffff038211156127d6576127d5612985565b5b828201905092915050565b60006127ec826128d6565b91506127f7836128d6565b925082612807576128066129b4565b5b828204905092915050565b600061281d826128d6565b9150612828836128d6565b9250817fffffffffffffffffffffffffffffffffffffffffffffffffffffffffffffffff048311821515161561286157612860612985565b5b828202905092915050565b6000612877826128b6565b9050919050565b60008115159050919050565b60007fffffffff0000000000000000000000000000000000000000000000000000000082169050919050565b600073ffffffffffffffffffffffffffffffffffffffff82169050919050565b6000819050919050565b82818337600083830152505050565b60005b8381101561290d5780820151818401526020810190506128f2565b8381111561291c576000848401525b50505050565b6000600282049050600182168061293a57607f821691505b6020821081141561294e5761294d6129e3565b5b50919050565b61295d82612a55565b810181811067ffffffffffffffff8211171561297c5761297b612a12565b5b80604052505050565b7f4e487b7100000000000000000000000000000000000000000000000000000000600052601160045260246000fd5b7f4e487b7100000000000000000000000000000000000000000000000000000000600052601260045260246000fd5b7f4e487b7100000000000000000000000000000000000000000000000000000000600052602260045260246000fd5b7f4e487b7100000000000000000000000000000000000000000000000000000000600052604160045260246000fd5b600080fd5b600080fd5b600080fd5b600080fd5b6000601f19601f8301169050919050565b7f4552433732313a2063616c6c6572206973206e6f7420746f6b656e206f776e6560008201527f72206f7220617070726f76656400000000000000000000000000000000000000602082015250565b7f4552433732313a207472616e7366657220746f206e6f6e20455243373231526560008201527f63656976657220696d706c656d656e7465720000000000000000000000000000602082015250565b7f4552433732313a207472616e736665722066726f6d20696e636f72726563742060008201527f6f776e6572000000000000000000000000000000000000000000000000000000602082015250565b7f4552433732313a20746f6b656e20616c7265616479206d696e74656400000000600082015250565b7f4552433732313a207472616e7366657220746f20746865207a65726f2061646460008201527f7265737300000000000000000000000000000000000000000000000000000000602082015250565b7f4552433732313a20617070726f766520746f2063616c6c657200000000000000600082015250565b7f3c2f746578743e3c2f7376673e00000000000000000000000000000000000000600082015250565b7f4552433732313a2061646472657373207a65726f206973206e6f74206120766160008201527f6c6964206f776e65720000000000000000000000000000000000000000000000602082015250565b7f45524337323155524953746f726167653a2055524920736574206f66206e6f6e60008201527f6578697374656e7420746f6b656e000000000000000000000000000000000000602082015250565b7f227d000000000000000000000000000000000000000000000000000000000000600082015250565b7f4552433732313a206d696e7420746f20746865207a65726f2061646472657373600082015250565b7f7b226e616d65223a202200000000000000000000000000000000000000000000600082015250565b7f4552433732313a20696e76616c696420746f6b656e2049440000000000000000600082015250565b7f4552433732313a20617070726f76616c20746f2063757272656e74206f776e6560008201527f7200000000000000000000000000000000000000000000000000000000000000602082015250565b7f222c20226465736372697074696f6e223a20224120686967686c79206163636c60008201527f61696d656420636f6c6c656374696f6e2057617272696f7273222c2022696d6160208201527f6765223a2022646174613a696d6167652f7376672b786d6c3b6261736536342c604082015250565b7f646174613a6170706c69636174696f6e2f6a736f6e3b6261736536342c000000600082015250565b7f4552433732313a20617070726f76652063616c6c6572206973206e6f7420746f60008201527f6b656e206f776e6572206f7220617070726f76656420666f7220616c6c000000602082015250565b612ea48161286c565b8114612eaf57600080fd5b50565b612ebb8161287e565b8114612ec657600080fd5b50565b612ed28161288a565b8114612edd57600080fd5b50565b612ee9816128d6565b8114612ef457600080fd5b5056fe3c7376672076696577426f783d2730203020333530203335302720786d6c6e733d27687474703a2f2f7777772e77332e6f72672f323030302f73766727203e3c7374796c653e2e62617365207b2066696c6c3a2077686974653b20666f6e742d66616d696c793a2073657269663b20666f6e742d73697a653a20323470783b207d3c2f7374796c653e3c636972636c652063783d27313735272063793d273137352720723d27313735272077696474683d273130302527206865696768743d2731303025272066696c6c3d27626c61636b273e3c2f636972636c653e3c7465787420783d273530252720793d273530252720636c6173733d27626173652720646f6d696e616e742d626173656c696e653d276d6964646c652720746578742d616e63686f723d276d6964646c65273e546f6b656e20234142434445464748494a4b4c4d4e4f505152535455565758595a6162636465666768696a6b6c6d6e6f707172737475767778797a303132333435363738392b2fa26469706673582212201ad0e60c0f661c1887645a70ff83b665e64f3d481eed5e8885dd9325d299a67e64736f6c63430008070033",
  "linkReferences": {},
  "deployedLinkReferences": {}
}